:020000040800F2
:1000000048450020C1010008013D0008033D0008EB
:10001000073D00080B3D00080F3D000800000000F0
:10002000000000000000000000000000133D000878
:10003000153D000800000000377B0008173D000850
:10004000DB010008DB010008DB010008DB01000820
:10005000DB010008DB010008DB010008DB01000810
:1000600047400008DB010008DB010008DB01000855
:10007000DB010008DB010008DB010008DB010008F0
:10008000B33F0008E13F0008DB010008DB01000886
:10009000DB010008DB010008DB010008DB010008D0
:1000A000DB010008DB010008DB0100080940000853
:1000B00007400008DB01000805400008DB010008DC
:1000C000DB010008DB010008DB010008DB010008A0
:1000D000DB010008393D0008053F0008DB0100088E
:1000E0001F400008DB010008DB01000800F002F8F7
:1000F00000F03CF80AA090E8000C82448344AAF186
:100100000107DA4501D100F031F8AFF2090EBAE883
:100110000F0013F0010F18BFFB1A43F0010318473B
:10012000D4800000F4800000103A24BF78C878C161
:10013000FAD8520724BF30C830C144BF04680C60ED
:10014000704700000023002400250026103A28BF35
:1001500078C1FBD8520728BF30C148BF0B60704739
:100160001FB507F00EFE1FBD10B510BD07F073FEE2
:100170001146FFF7F5FF03F085FF07F091FE03B48A
:10018000FFF7F2FF03BC07F097FE00000B49D1F820
:1001900000C04A685CF8043B1068184442F8040B3D
:1001A0008C4528BFA1F1DC0C8A4228BFA1F1DC02FA
:1001B000C1F800C04A6020F000407047E03E0020D7
:1001C0000948804709480047FEE7FEE7FEE7FEE7EB
:1001D000FEE7FEE7FEE7FEE7FEE7FEE70448054927
:1001E000054A064B704700000D310008ED0000087D
:1001F000483F002048450020484100204841002059
:1002000031490143314A1160704770B50021002324
:100210000F22C4780CB32D4C246804F4E064C4F5B8
:10022000E064210AC1F10403CA40447804FA03F1EE
:100230008478144021430901254C0678A15504789F
:1002400004F01F050124AC4005786D114FF0E02645
:1002500006EB8505C5F8004109E0047804F01F05A8
:100260000124AC401B4D0678761145F8264070BD40
:10027000194A0A400243154B1B1F1A60704739B1D7
:10028000124A121D12680243104B1B1D1A6006E031
:100290000E4A121D126882430C4B1B1D1A607047D8
:1002A000042808D14FF0E021096941F004014FF022
:1002B000E022116107E04FF0E021096921F004011B
:1002C0004FF0E022116170470000FA050CED00E0EC
:1002D00000E400E080E100E080FFFF1F00204449CF
:1002E0000860091D0860091D0860091D0860414873
:1002F0003F4914310860704700213D498279002A46
:100300003AD00A46126803689A430B461A600A1DDF
:10031000126803689A430B1D1A60027911440A6837
:1003200003681A430A60324A0832126803689A4323
:100330002F4B08331A601A1D126803689A432C4B1E
:100340000C331A604279102A0ED11A1F1268036802
:100350001A43274B08331A601A1D126803681A43A0
:10036000234B0C331A600DE02149427911440A688D
:1003700003681A430A6005E0027911440A680368B9
:100380009A430A6070470021016001710C2141719C
:100390000021817170471649103109680143144AE0
:1003A00010321160704701460020114A1432126861
:1003B0000A4201D0012000E0002070470C491431AE
:1003C00008607047014600200022094B1B6803EAC1
:1003D0000102074B14331B680B4202D00AB1012003
:1003E00000E00020704702491431086070470000A7
:1003F00000040140FFFF0F0010B50446CA488442C4
:1004000008D10121042000F027FB0021042000F086
:1004100023FB46E0C548844208D10121082000F0B2
:100420001BFB0021082000F017FB3AE0C048844283
:1004300008D10121102000F00FFB0021102000F056
:100440000BFB2EE0BB48844208D10121202000F0A4
:1004500003FB0021202000F0FFFA22E0B64884428E
:1004600008D10121402000F0F7FA0021402000F0DF
:10047000F3FA16E0B148844208D10121802000F04F
:10048000EBFA0021802000F0E7FA0AE0AC48844251
:1004900007D10121801500F0DFFA0021A01500F03E
:1004A000DBFA10BD10B50121084600F0D5FA002195
:1004B000012000F0D1FA10BD2DE9F04102460025DF
:1004C0000026002000230024002791F803C00CF030
:1004D0000F0591F803C01CF0100F03D091F802C073
:1004E0004CEA050591F800C0BCF1000F31D014684A
:1004F00000202BE04FF0010C0CFA00F3B1F800C023
:100500000CEA03069E4220D183004FF00F0C0CFA38
:1005100003F7BC4305FA03FC4CEA040491F803C05A
:10052000BCF1280F06D14FF0010C0CFA00FCC2F808
:1005300014C00AE091F803C0BCF1480F05D14FF098
:10054000010C0CFA00FCC2F810C0401C0828D1D3E2
:100550001460B1F800C0BCF1FF0F34DD5468002016
:100560002EE000F1080C4FF0010808FA0CF3B1F886
:1005700000C00CEA03069E4221D183004FF00F0C0D
:100580000CFA03F7BC4305FA03FC4CEA040491F8A7
:1005900003C0BCF1280F05D100F1080C08FA0CF8D3
:1005A000C2F8148091F803C0BCF1480F07D100F1E4
:1005B000080C4FF0010808FA0CF8C2F81080401C33
:1005C0000828CED35460BDE8F0814FF6FF7101805A
:1005D000022181700421C170704702460020936897
:1005E0000B4201D0012000E00020704701468868DE
:1005F00080B2704702460020D3680B4201D0012030
:1006000000E0002070470146C86880B27047016171
:100610007047416170470AB1016100E04161704774
:10062000C16070474FF480320A4382618161826108
:1006300082698269704702460020424B18684FF673
:100640008073184040EA021008433E4B1860704720
:100650003D49C8617047F0B50A46002300240021D7
:10066000002500F00046B6F1004F02D1354EF16989
:1006700001E0344E7168C0F3034583B200F44016C4
:10068000B6F5401F08D121F070612E4E766826F035
:1006900070662C4F7E6012E000F48016B6F5801F65
:1006A00006D1032606FA05F4A14341F0706106E085
:1006B000460D360103FA06F6B14341F0706122B1EE
:1006C000460D360103FA06F6314300F00046B6F156
:1006D000004F02D11B4EF16101E01A4E7160F0BD76
:1006E00030B500228B071C0F0F2303FA04F2154BC1
:1006F00008338C1053F824309343124C08348D1077
:1007000044F8253023468C1053F824308C07240FEE
:1007100000FA04F423430B4C08348D1044F82530C0
:1007200030BD0A490860704700080140000C0140D4
:10073000001001400014014000180140001C01405D
:10074000002001400000014000002042DC00204267
:10075000DD48006840F00100DB4908600846406859
:10076000DA490840D849486008460068D849084036
:10077000D54908600846006820F4802008600846D3
:10078000406820F4FE0048604FF41F008860704706
:10079000CD49096821F48031CB4A116011460968BE
:1007A00021F480211160B0F5803F03D0B0F5802F97
:1007B0000ED106E0C449096841F48031C24A116093
:1007C00007E0C149096841F4A021BF4A116000E077
:1007D00000BF00BF704710B5014600220023002073
:1007E0004A11012A02D1B84C236806E0022A02D13C
:1007F000B54C236A01E0B44C636A01F01F02012486
:1008000094401C4201D0012000E0002010BD38B50A
:10081000002000900024002500BF3120FFF7DBFFFF
:1008200005460098401C00900098B0F5A06F01D0DC
:10083000002DF2D03120FFF7CEFF08B1012400E0F7
:100840000024204638BD014600209F4A106820F051
:10085000F80040EAC100106070479E490860704788
:1008600002460020984B586820F47C1042EA0103AD
:100870001843954B58607047964908667047014683
:100880000020914A506820F00300084350607047F0
:100890008D48406800F00C007047014600208A4AED
:1008A000506820F0F0000843506070470146002077
:1008B000854A506820F4E060084350607047014664
:1008C0000020814A506820F4605040EAC100506026
:1008D000704729B17C4A527A02437B4B5A7204E03A
:1008E000794A527A8243784B5A7270477A49086043
:1008F000704701460020744A506820F44040084385
:10090000506070470021754A11706F4A82F82010BC
:10091000012802D0042808D103E001216F4A117098
:1009200004E005216D4A117000E000BF00BF704770
:100930006B49086070476449096A0143624A116261
:100940007047674944390860704730B5002100227C
:10095000002400235C4D6D6805F00C0121B10429D1
:1009600005D0082923D105E05E4D056022E05D4DEC
:1009700005601FE0544D6D6805F47012524D6D68AE
:1009800005F48034022505EB92421CB9564D5543BF
:1009900005600BE04C4D6D6815F4003F03D0524DDF
:1009A0005543056002E04F4D5543056002E04D4D53
:1009B000056000BF00BF444D6D6805F0F0010909F6
:1009C0004A4D6B5C0568DD4045603F4D6D6805F440
:1009D000E061090A454D6B5C4568DD4085603A4D34
:1009E0006D6805F46051C90A404D6B5C4568DD4097
:1009F000C560354D6D6805F44041890B3C4D6B5C1D
:100A0000C568B5FBF3F5056130BD29B12E4A5269C1
:100A100002432D4B5A6104E02B4A526982432A4B10
:100A20005A61704729B1284A92690243264B9A615C
:100A300004E0254A92698243234B9A61704729B1A9
:100A4000214AD2690243204BDA6104E01E4AD2698E
:100A500082431D4BDA61704729B11B4AD2680243B9
:100A6000194BDA6004E0184AD2688243164BDA6008
:100A7000704729B1144A12690243134B1A6104E00A
:100A8000114A12698243104B1A6170471449403968
:100A9000086070470F49C86470470B49C8717047B8
:100AA0000948406A40F08070074948627047014633
:100AB0000020054A92680A4201D0012000E000208F
:100AC0007047014988727047001002400000FFF82B
:100AD000FFFFF6FE00004242D800424220100240D2
:100AE0008004424200127A0000093D00000000200C
:100AF0001000002010B50446BE48844208D10121F0
:100B00008014FFF7A9FF0021A014FFF7A5FF16E04E
:100B1000B948844208D101210014FFF7AAFF00213F
:100B20002014FFF7A6FF0AE0B448844207D1012150
:100B3000C013FFF79EFF0021E013FFF79AFF10BDDF
:100B400010B50022028802F441520B884C882343DE
:100B50008C882343CC8823430C8923434C8923432B
:100B60008C892343CC8923431A430280838B4FF221
:100B7000FF74234083830B8A038210BD2DE9F04F5D
:100B800085B005460C464FF0000902274FF00008DB
:100B90004FF0010B0026B246A88B4FF240010840EF
:100BA000A88302202884B5F81C90A068022801D1EF
:100BB00000BF38E0A08810B94FF0010B01E04FF002
:100BC000020B8D48854200D100E000BF6846FFF768
:100BD000BCFEDDF800A0E088B0F5007F0AD14FEA46
:100BE0001A2000EB80004000A168B0FBF1F0401D2E
:100BF00086B20BE04FEA4B10BAFBF0F000EB80003E
:100C00004000A168B0FBF1F0401D86B20A20B6FB9F
:100C1000F0F606F00108A6EB0800C0F34F074FF608
:100C2000FF7000EA0828022F01DBFF2F02DD0227F8
:100C30004FF00008E08840EA080038432884A08884
:100C4000A1890843618808432188084340F4006073
:100C500040EA0909A5F81C9005B0BDE8F08F002115
:100C6000018041808180C180018141818181C18178
:100C70000721018270470021018041808180C1806D
:100C80000221816000218181704721B1028842F0F8
:100C90004002028004E002884FF6BF731A400280CF
:100CA000704721B1828B42F48062828304E0828BA0
:100CB0004FF6FF331A408283704730B5002400237B
:100CC0000C110125A540ABB21AB185881D43858062
:100CD00002E085889D43858030BD1AB183880B432F
:100CE000838002E083888B438380704781817047D3
:100CF000014688897047A1F57E42FF3A04D00288F8
:100D000042F48072028004E002884FF6FF631A40CA
:100D10000280704721B1828842F00402828004E0A0
:100D200082884FF6FB731A408280704702884FF228
:100D3000FF731A40028002880A43028070470188CC
:100D400041F480510180704721B1028842F4005281
:100D5000028004E002884DF6FF731A40028070475B
:100D600002460020012901D0108B00E0908A7047D4
:100D70000146088A7047B1F5804F04D1028842F4D9
:100D80008042028004E002884BF6FF731A40028022
:100D900070470246002013890B4201D0012000E079
:100DA00000207047CA4302817047F0B50246002018
:100DB00000240023002501F00F070126BE40B4B235
:100DC0000B1101269E40B3B2968806EA03051689E8
:100DD000264202D00DB1012000E00020F0BD10B588
:100DE000002201F00F040123A3409AB2D3430381F0
:100DF00010BD00000030014000380040003C0040C1
:100E000010B50446FB48844209D101218803FFF74D
:100E100023FE00214FF48040FFF71EFE32E0F6482B
:100E2000844209D101214804FFF723FE00214FF439
:100E30000030FFF71EFE25E0F048844209D1012171
:100E40008804FFF716FE00214FF48020FFF711FE03
:100E500018E0EB48844209D10121C804FFF709FEDC
:100E600000214FF40020FFF704FE0BE0E548844228
:100E700008D101210805FFF7FCFD00214FF4801087
:100E8000FFF7F7FD10BD2DE9F04786B005460E4689
:100E90000024A24600BFA1460027B08900B100BFD0
:100EA0002F462C8A4CF6FF700440F08804432C82B5
:100EB000AC894EF6F3100440B0883189084371893B
:100EC00008430443AC81AC8A4FF6FF400440B0892C
:100ED0000443AC8201A8FFF738FDC648874202D11F
:100EE000DDF810A001E0DDF80CA0A88910F4004F97
:100EF00008D00AEBCA0000EB0A1031684900B0FBC9
:100F0000F1F807E00AEBCA0000EB0A10316889002B
:100F1000B0FBF1F86420B8FBF0F004012009642173
:100F200001FB1089A88910F4004F08D0322000EB93
:100F3000C900B0FBF1F000F00700044308E03220E4
:100F400000EB09106421B0FBF1F000F00F00044346
:100F50002C8106B0BDE8F0874FF4165101600021E6
:100F60008180C18001810C214181002181817047F4
:100F700010B502460020108A4FF2FF0318400B887C
:100F80004C8823438C882343CC8823431843108206
:100F900010BD0021018041808180C180704721B156
:100FA000828942F40052828104E082894DF6FF7307
:100FB0001A4082817047F0B50346002400260025C0
:100FC0000020A1F510676A3F00D100BF1846C1F3A9
:100FD000421401F01F06012707FA06F5012C01D182
:100FE0000C3004E0022C01D1103000E014301AB1B2
:100FF00007682F43076002E00768AF430760F0BD52
:101000001AB1838A0B43838202E0838A8B438382F3
:101010007047028A4FF6F0731A400282028A0A432E
:101020000282704782894FF2FF731A40828182895F
:101030000A438281704721B1828942F00202828193
:1010400004E082894FF6FD731A4082817047028A5C
:101050004FF6DF731A400282028A0A430282704707
:1010600021B1028A42F48042028204E0028A4BF6F5
:10107000FF731A4002827047C1F3080282807047F2
:1010800001468888C0F308007047818941F001015A
:1010900081817047028BD2B20283028B42EA012225
:1010A00002837047028B02F47F420283028B0A4361
:1010B0000283704721B1828A42F02002828204E0DA
:1010C000828A4FF6DF731A408282704721B1828A8A
:1010D00042F01002828204E0828A4FF6EF731A40D7
:1010E0008282704721B1828A42F00802828204E043
:1010F000828A4FF6F7731A408282704721B1828943
:1011000042F40042828103E08289C2F30E028281AE
:10111000704721B1828A42F40062828204E0828AAE
:101120004FF2FF731A4082827047828A4FF6FB7338
:101130001A408282828A0A438282704721B1828A5F
:1011400042F00202828204E0828A4FF6FD731A4066
:101150008282704702460020B1F5007F00D100BFB7
:1011600013880B4201D0012000E00020704701F4F9
:101170000072B2F5007F00D100BFCA430280704701
:1011800070B502460024002300250020A1F510665A
:101190006A3E00D100BFC1F3421501F01F030126D2
:1011A00006FA03F3012D02D19689334006E0022DA1
:1011B00002D1168A334001E0968A33400C12012690
:1011C00006FA04F41688344013B10CB1012000E093
:1011D000002070BD10B500220023A1F510646A3C08
:1011E00000D100BF0A1201249440A3B2DC43048062
:1011F00010BD00000038014000440040004800409D
:10120000004C00400050004001460020FE4A10689B
:1012100000F03800084310607047FB49096821F06E
:101220000801F94A116011460968014311607047CD
:10123000F549096821F01001F34A11601146096867
:10124000014311607047F148EF494860F048486039
:101250007047EE48EC494860ED4848607047EA48FE
:10126000006940F08000E84908617047E64800697D
:1012700040F08000E449086170470420E249C968F1
:1012800011F0010F01D001200EE0DF49C96811F013
:10129000040F01D0022007E0DB49C96811F0100FEC
:1012A00001D0032000E00420704700B5024604236B
:1012B000FFF7E3FF034603E0FFF7DFFF0346521E9D
:1012C000012B01D1002AF7D102B90523184600BD30
:1012D00030B5044604254FF43020FFF7E6FF0546FD
:1012E000042D17D1C848006940F00200C6490861C2
:1012F00008464461006940F0400008614FF4302026
:10130000FFF7D3FF0546C048006941F6FD7108406C
:10131000BD490861284630BD10B504244FF4302083
:10132000FFF7C3FF0446042C16D1B748006940F00C
:101330000400B54908610846006940F040000861B2
:101340004FF43020FFF7B1FF0446AF48006941F683
:10135000FB710840AC490861204610BD00B502464B
:101360000423FFF78AFF034603E0FFF786FF0346E7
:10137000521E012B01D1002AF7D102B905231846CC
:1013800000BD10B504244FF43020FFF7E7FF0446FA
:10139000042C16D19C48006940F004009A49086169
:1013A0000846006940F0400008614FF43020FFF724
:1013B000D5FF04469448006941F6FB710840924904
:1013C0000861204610BD00208F49C96911F0020F45
:1013D00001D0012000E00020704730B5A52504248D
:1013E000FFF7F1FF00B100254FF43020FFF75DFF5C
:1013F0000446042C3AD18548834988608448886033
:101400000846006940F0200008610846006940F085
:10141000400008614FF43020FFF747FF0446042CDA
:101420001BD17948006941F6DF71084076490861AF
:101430000846006940F01000086176480580E00227
:10144000FFF733FF0446052C10D06F48006941F6C2
:10145000EF7108406C49086108E0052C06D06A4825
:10146000006941F6EF71084067490861204630BDC8
:1014700078B506460C46042500200090E802FFF7E8
:1014800014FF0546042D24D15F48006940F0010097
:101490005D4908613480E802FFF707FF0546042D27
:1014A00010D1B01C0090200C00990880E802FFF7D2
:1014B000FCFE05465448006941F6FE710840524959
:1014C000086106E05048006941F6FE7108404E4947
:1014D0000861284678BD70B504460D460426F00222
:1014E000FFF7E3FE0646042E11D14748006940F09D
:1014F0000100454908612580F002FFF7D6FE064647
:101500004148006941F6FE7108403F490861304694
:1015100070BD70B505460E460424E002FFF7C5FE17
:101520000446042C17D13948374988603848886008
:101530000846006940F0100008612E80E002FFF7C5
:10154000B4FE0446052C06D02F48006941F6EF7121
:1015500008402D490861204670BD2DE9F04304463E
:101560004FF6FF763746B046B1460425E443E6B26F
:10157000C4F30727C4F307484FEA1469E802FFF7EA
:1015800094FE0546042D49D120481F498860204813
:1015900088600846006940F010000861FF2E06D000
:1015A0001C4808300680E802FFF77FFE0546042D40
:1015B00008D1FF2F06D017480A300780E802FFF74E
:1015C00074FE0546042D0AD1B8F1FF0F07D011486B
:1015D0000C30A0F80080E802FFF767FE0546042DF6
:1015E0000AD1B9F1FF0F07D00A480E30A0F80090D9
:1015F000E802FFF75AFE0546052D0FD002480069A4
:1016000041F6EF71084007E00020024023016745E2
:10161000AB89EFCD00F8FF1F664908612846BDE899
:10162000F08330B5054604244FF43020FFF73DFE2B
:101630000446042C41D160485E4988605F48886058
:101640000846006940F0200008610846006940F043
:10165000400008614FF43020FFF727FE0446042CB9
:1016600022D15448006941F6DF71084051490861B0
:101670000846006940F0100008611DB10020504983
:10168000088002E0A5204E4908804FF43020FFF783
:101690000CFE0446052C10D04648006941F6EF7157
:1016A00008404449086108E0052C06D0414800691B
:1016B00041F6DF7108403F490861204630BDF0B572
:1016C00005460E46174604243B483A4988603B4885
:1016D0008860E002FFF7E9FD0446042C19D1354883
:1016E000006940F010003349086147F0F8003043CA
:1016F00028433349891C0880E002FFF7D6FD0446E1
:10170000052C06D02B48006941F6EF7108402949A5
:1017100008612046F0BD2748C06980087047254809
:10172000006A704700202349096811F0200F01D09A
:10173000012000E00020704729B11E4A12690243CF
:101740001C4B1A6104E01B4A12698243194B1A614F
:10175000704701460020012908D1164AD26912F0CB
:10176000010F01D0012008E0002006E0114AD268F4
:101770000A4201D0012000E0002070470D49C860F6
:10178000704704200B49C96811F0010F01D00120F6
:101790000EE00849C96811F0040F01D0022007E0EB
:1017A0000449C96811F0100F01D0032000E00420A3
:1017B000704700000020024023016745AB89EFCD50
:1017C00000F8FF1F10B50446FE48844208D10121ED
:1017D000C014FFF741F90021E014FFF73DF9C4E020
:1017E000B4F1804F08D101210846FFF742F90021EA
:1017F0000120FFF73EF9B8E0F348844208D1012107
:101800000220FFF736F900210220FFF732F9ACE0A1
:10181000EE48844208D101210420FFF72AF9002173
:101820000420FFF726F9A0E0E948844208D101210D
:101830000820FFF71EF900210820FFF71AF994E0AD
:10184000E448844208D101211020FFF712F9002159
:101850001020FFF70EF988E0DF48844208D101210B
:101860002020FFF706F900212020FFF702F97CE095
:10187000DA48844208D101214014FFF7EDF8002135
:101880006014FFF7E9F870E0D548844209D10121DE
:10189000C804FFF7E1F800214FF40020FFF7DCF85F
:1018A00063E0D048844209D101210805FFF7D4F84C
:1018B00000214FF48010FFF7CFF856E0CA48844269
:1018C00009D101214805FFF7C7F800214FF40010A6
:1018D000FFF7C2F849E0C548844208D10121402001
:1018E000FFF7C7F800214020FFF7C3F83DE0C048EC
:1018F000844208D101218020FFF7BBF8002180201D
:10190000FFF7B7F831E0BB48844208D101218015C8
:10191000FFF7AFF80021A015FFF7ABF825E0B648B8
:10192000844209D101210804FFF796F800214FF401
:101930008030FFF791F818E0B048844209D10121C6
:101940004804FFF789F800214FF40030FFF784F8CE
:101950000BE0AB48844208D101218804FFF77CF8F2
:1019600000214FF48020FFF777F810BD0022028895
:10197000944B98420ED0994B98420BD0B0F1804FC7
:1019800008D0914B984205D0904B984202D0904B92
:10199000984204D14FF68F731A404B881A438D4BEF
:1019A000984207D08C4B984204D04FF6FF431A4020
:1019B000CB881A4302808B8883850B880385814BF3
:1019C00098420BD0854B984208D08B4B984205D05B
:1019D0008A4B984202D08A4B984201D10B7A0386F7
:1019E00001238382704770B5002400220023058CF8
:1019F0004FF6FE7635400584028C8388048B4FF6C3
:101A00008F752C40B51E2C400D882C43751E2A4026
:101A10000D892A434D882A436A4DA8420BD06F4D49
:101A2000A84208D0744DA84205D0744DA84202D0F7
:101A3000734DA84213D14FF6F7752A404D892A43BA
:101A40004FF6FB752A408D882A434FF6FF652B40E1
:101A50004FF6FF552B408D892B43CD892B43838037
:101A60000483CD888586028470BD70B50024002271
:101A70000023058C4FF6EF7635400584028C838871
:101A8000048B48F6FF752C404FF6FF452C400D881F
:101A90004FF6FF7606EA05252C434FF6DF752A4000
:101AA0000D8906EA05152A434D8806EA05152A43DD
:101AB000444DA84202D0494DA8421DD14FF67F7532
:101AC0002A404D894FF6FF7606EA05152A434FF660
:101AD000BF752A408D8806EA05152A434FF6FF3563
:101AE0002B404FF2FF752B408D8906EA85052B436D
:101AF000CD8906EA85052B4383800483CD8805873D
:101B0000028470BD70B5002400220023058C4FF6BE
:101B1000FF6635400584028C8388848B4FF68F7571
:101B20002C404FF6FC752C400D882C434FF6FF558A
:101B30002A400D894FF6FF7606EA05252A434D888F
:101B400006EA05252A431F4DA84202D0234DA8428C
:101B50001DD14FF2FF752A404D894FF6FF7606EAF8
:101B600005252A434FF6FF352A408D8806EA0525CC
:101B70002A434EF6FF752B404DF6FF752B408D899D
:101B800006EA05152B43CD8906EA05152B4383800C
:101B90008483CD888587028470BD70B500220023C0
:101BA0000024058C4EF6FF7635400584038C84882E
:101BB000828B48F6FF752A404FF6FF452A400D8874
:101BC00020E00000002C014000040040000800401C
:101BD000000C0040001000400014004000340140A0
:101BE000004C0140005001400054014000180040EA
:101BF000001C004000200040004001400044014023
:101C0000004801404FF6FF7606EA05252A434DF6C7
:101C1000FF752B400D8906EA05352B434D8806EAF2
:101C200005352B43FA4DA84202D0FA4DA84208D1FF
:101C30004BF6FF752C408D894FF6FF7606EA851529
:101C40002C4384808283CD88A0F84050038470BDEB
:101C5000828B4FF2FF331A408283828B4FF6FF73E1
:101C600003EA01231A4382837047F0B50C461546F8
:101C7000002200210026078C4EF6FF7C07EA0C07A5
:101C80000784828B018C4FF6FF7707EA043640F613
:101C9000FF473A404FF6FF7707EA05273A434FF6EA
:101CA000FF7707EA03373A43D94FB8420ED0D94FEE
:101CB000B8420BD0B0F1804F08D0D74FB84205D012
:101CC000D64FB84202D0D64FB84206D14DF6FF7774
:101CD000394046F48057394305E047F6FF5739400D
:101CE00044F48057394382830184F0BD828B4FF6E0
:101CF000F3731A408283828B0A4382837047F0B564
:101D00000C461546002200210026078C4FF6FF6C7A
:101D100007EA0C070784828B018C4FF6FF7707EAEE
:101D200004264FF60C773A404FF6FF7707EA031781
:101D30002F433A43B64FB8420ED0B64FB8420BD0FD
:101D4000B0F1804F08D0B44FB84205D0B34FB8427D
:101D500002D0B34FB84206D14FF6FF57394046F490
:101D60008077394305E04FF2FF57394044F48077DC
:101D7000394382830184F0BD028B4FF2FF331A4056
:101D80000283028B4FF6FF7303EA01231A43028397
:101D90007047F0B50C461546002200210026078C3E
:101DA0004FF6EF7C07EA0C070784028B018C4FF695
:101DB000FF7707EA041640F6FF473A404FF6FF77F1
:101DC00007EA03373A434FF6FF7707EA05273A4316
:101DD0008F4FB8420ED08F4FB8420BD0B0F1804F2A
:101DE00008D08D4FB84205D08C4FB84202D08C4FEE
:101DF000B84206D14FF6DF77394046F01007394335
:101E000005E04FF65F77394044F01007394302830D
:101E10000184F0BD028B4FF6F3731A400283028BEC
:101E20000A4302837047F0B50C4615460022002194
:101E3000068C4FF6FE773E400684028B018C4FF6EF
:101E40000C7632407E1C06EA03162E433243704E57
:101E5000B0420ED06F4EB0420BD0B0F1804F08D0E0
:101E60006D4EB04205D06D4EB04202D06C4EB042C5
:101E700006D14FF6FD76314044F00106314305E0CE
:101E80004FF6F576314044F0010631430283018478
:101E9000F0BD70B505460C465D4885420ED05D48E4
:101EA00085420BD0B5F1804F08D05B48854205D004
:101EB0005A48854202D05A48854200D100E000BF0E
:101EC000208850B92389A28861882846FFF7ABFF94
:101ED000E1882846FFF79EFF25E0208804280AD1E4
:101EE0002389A28861882846FFF753FFE1882846A6
:101EF000FFF742FF17E0208808280AD12389A2882B
:101F000061882846FFF7FBFEE1882846FFF7EEFED2
:101F100009E02389A28861882846FFF7A6FEE188A8
:101F20002846FFF795FE70BD2DE9F04105460C46A9
:101F300000260127608808B9022600E00026A08854
:101F4000012801D1022700E001272088A0B92389B8
:101F5000A28861882846FFF766FFE1882846FFF7D8
:101F600059FF23893A4631462846FFF712FFE18898
:101F70002846FFF701FF13E02389A28861882846DD
:101F8000FFF707FFE1882846FFF7F6FE23893A4668
:101F900031462846FFF747FFE1882846FFF73AFF1A
:101FA000BDE8F0810A884B881A438B881A43CB8896
:101FB0001A430B891A434B891A438B891A43A0F899
:101FC000442070474FF6FF71818000210180C1805D
:101FD0004180017270470021018041808180C18071
:101FE000018141818181C18170470021018041804F
:101FF000012181800021C180018170470021018081
:1020000041808180C18001814181818170470000D0
:10201000002C014000340140000400400008004052
:10202000000C004021B1028842F00102028004E06D
:1020300002884FF6FE731A400280704731B1B0F843
:10204000442042F40042A0F8442005E0B0F84420C7
:10205000C2F30E02A0F8442070471AB183890B43E3
:10206000838102E083898B4383817047818270473B
:1020700041EA0203A0F8483070471AB183890B4344
:10208000838102E083898B438381704701894FF606
:10209000F8721140018170470A46002101894FF60C
:1020A0008F73194011430181704730B504460D46C6
:1020B00029462046FFF7F0FF208940F007002081E5
:1020C00030BD2DE9F04104460D4616461F46602DF1
:1020D00006D13B46012231462046FFF75AFE05E075
:1020E0003B46012231462046FFF79DFE2946204609
:1020F000FFF7D2FF208940F007002081BDE8F08182
:1021000030B50C4600210189C9B24FF6FF7505EACA
:102110000325154325432943018130BD2DE9F041B5
:1021200005460E4617469846002443463A46314631
:102130002846FFF7E5FF2C894FF6F870044044F07D
:1021400007044FF68F70044044F070042C81BDE802
:10215000F081F0B504460D4616461F463B46324612
:1021600029462046FFF7CCFF208940F4804020819B
:10217000F0BD0185828270470A46002101884FF632
:102180008F731940114301807047F0B50C46154616
:102190001E460021002200230189028B038C4FF68A
:1021A000F877394021434FF6FC473A4040F2011797
:1021B0003A434FF6DD773B404FF6FF7707EA0617C5
:1021C0002F433B43018102830384F0BD0A46002173
:1021D000018B4FF68F7319401143018370470A46F4
:1021E0000021018B48F6FF7319404FF6FF7303EA95
:1021F00002231943018370470A460021818B4FF661
:102200008F7319401143818370470A460021818BE7
:1022100048F6FF7319404FF6FF7303EA0223194390
:102220008183704721B1028842F08002028004E07D
:1022300002884FF67F731A400280704721B182886E
:1022400042F00402828004E082884FF6FB731A4059
:102250008280704721B1828842F00802828004E0C7
:1022600082884FF6F7731A408280704721B18288C6
:1022700042F00102828004E082884FF6FE731A4029
:10228000828070470A460021018B4FF6F773194090
:102290001143018370470A460021018B4FF2FF73FF
:1022A00019404FF6FF7303EA022319430183704775
:1022B0000A460021818B4FF6F77319401143818341
:1022C00070470A460021818B4FF2FF7319404FF689
:1022D000FF7303EA02231943818370470A460021F2
:1022E000018B4FF6FB7319401143018370470A4677
:1022F0000021018B4FF6FF3319404FF6FF7303EABD
:1023000002231943018370470A460021818B4FF64F
:10231000FB7319401143818370470A460021818B6A
:102320004FF6FF3319404FF6FF7303EA02231943B8
:10233000818370470A460021018B4FF67F73194055
:102340001143018370470A460021018BC1F30E013E
:102350004FF6FF7303EA02231943018370470A46CD
:102360000021818B4FF67F731940114381837047A1
:102370000A460021818BC1F30E014FF6FF7303EA79
:1023800002231943818370470A460021018C4FF6CE
:10239000FD7319401143018470470A460021018CE6
:1023A0004FF6F77319401143018470470A46002124
:1023B000018C4FF6DF7319404FF6FF7303EA0213E7
:1023C0001943018470470A460021018C4FF67F7340
:1023D00019404FF6FF7303EA021319430184704753
:1023E0000A460021018C4FF6FF5319404FF6FF7348
:1023F00003EA02231943018470470A460021018C35
:102400004FF2FF7319404FF6FF7303EA022319439B
:10241000018470470A460021018C4DF6FF73194074
:102420004FF6FF7303EA023319430184704730B556
:10243000002301248C40A3B2048C9C430484048CAC
:1024400002FA01F5ADB22C43048430BD30B500234F
:1024500004248C40A3B2048C9C430484048C02FAB0
:1024600001F5ADB22C43048430BD70B503460020A5
:1024700000241846183001258D40ACB21D8CA543B0
:102480001D8409B1082909D100EB6100056825F018
:10249000700505600568154305600EE00D1FC5F366
:1024A0004E052844056825F4E045056005684FF6AB
:1024B000FF7606EA02263543056070BD21B1028829
:1024C00042F00202028004E002884FF6FD731A40D7
:1024D0000280704721B1028842F00402028004E0C9
:1024E00002884FF6FB731A400280704721B1828840
:1024F00042F08002828004E082884FF67F731A40A7
:102500008280704702884FF6F7731A400280028873
:102510000A430280704782884FF68F731A40828088
:1025200082880A438280704702894FF6F8731A4006
:10253000028102890A430281704702894FF67F7344
:102540001A40028102890A430281704781847047E0
:102550008185704781867047018770478187704702
:10256000A0F84010704702884FF6FF431A400280DF
:1025700002880A43028070470146888E70470146F0
:10258000088F70470146888F70470146B1F84000B8
:1025900070470146888C70470146088D7047024697
:1025A0000020138A0B4201D0012000E00020704778
:1025B000CA430282704730B502460020002300243F
:1025C000158A05EA0103958905EA010413B10CB1E6
:1025D000012000E0002030BDCA43028270470000A5
:1025E00001684FF6FE7211400160002101604160F8
:1025F0008160C1608C49884208D18B49083949689B
:1026000041F00F01884A083A51608AE08649143146
:10261000884208D184490839496841F0F001824A6A
:10262000083A51607DE080492831884208D17E49CE
:102630000839496841F470617B4A083A516070E09A
:1026400079493C31884208D177490839496841F4D1
:102650007041754A083A516063E0734950318842CD
:1026600008D171490839496841F470216E4A083A25
:10267000516056E06C496431884208D16A49083992
:10268000496841F47001684A083A516049E0664976
:102690007831884208D164490839496841F070614D
:1026A000614A083A51603CE06049884206D1011F06
:1026B000096841F00F01021F116032E05B491431DB
:1026C000884208D15949091F096841F0F001574A69
:1026D000121F116025E055492831884208D153491D
:1026E000091F096841F47061504A121F116018E017
:1026F0004E493C31884208D14C49091F096841F4D0
:1027000070414A4A121F11600BE04849503188421B
:1027100007D14649091F096841F47021434A121F35
:102720001160704710B50022026847F6F0739A43B3
:102730000C6A8B6823430C6923434C6923438C69DF
:102740002343CC6923434C6A23438C6A23431A43B3
:102750000260CB6843600B6883604B68C36010BD48
:102760000021016041608160C1600161416181615E
:10277000C161016241628162704721B1026842F029
:102780000102026004E002684FF6FE731A40026024
:1027900070471AB103680B43036002E003688B4380
:1027A00003607047416070470146486880B27047D7
:1027B00001460020002211F0805F03D01B4B083B34
:1027C0001A6802E0184B083B1A680A4201D001203F
:1027D00000E00020704710F0805F03D01349091F0C
:1027E000086002E01049083948607047014600203F
:1027F000002211F0805F03D00C4B083B1A6802E006
:10280000094B083B1A680A4201D0012000E0002071
:10281000704710F0805F03D00449091F086002E090
:102820000149083948607047080002400804024026
:1028300070B5044600254FF48051FE48FDF7E9FECF
:10284000204601F01CF9FF2001F019F905464FF46C
:102850008051F848FDF7DBFE284670BD70B5044690
:102860000D464FF48051F348FDF7D3FE44F080004D
:1028700001F07EF9284601F07BF94FF48051ED48D4
:10288000FDF7C5FE70BD10B500244FF48051E94836
:10289000FDF7BFFE142000F0C2FA0320FFF7C8FFC7
:1028A000E54908700420FFF7C3FFE4490870802160
:1028B0000720FFF7D3FF05E0641CB4F5E02F01D932
:1028C000002406E04FF40061DA48FDF786FE012897
:1028D000F2D000BF00240320FFF7AAFFD6490870FA
:1028E0000420FFF7A5FFD549087053217520FFF795
:1028F000B5FF64217620FFF7B1FF00217720FFF7B5
:10290000ADFF14212A20FFF7A9FF09216E20FFF750
:10291000A5FFD5216F20FFF7A1FF2C217020FFF725
:102920009DFF38217220FFF799FF1B211C20FFF724
:1029300095FF83212020FFF791FFC0212120FFF781
:102940008DFF13212220FFF789FFA9212320FFF704
:1029500085FF00212420FFF781FF03212520FFF7B9
:102960007DFF40211D20FFF779FF0A211E20FFF780
:1029700075FF14212A20FFF771FF0A213420FFF789
:102980006DFF2A213520FFF769FF04213320FFF76F
:1029900065FF72213620FFF761FF66213720FFF7C0
:1029A0005DFF84213820FFF759FF8D213020FFF78C
:1029B00055FF00213220FFF751FF63217120FFF7FF
:1029C0004DFF12210B20FFF749FF15210C20FFF7C7
:1029D00045FFD7210920FFF741FF60216920FFF75C
:1029E0003DFF1E216D20FFF739FF05210720FFF76E
:1029F00035FF03210520FFF731FF00210620FFF7F7
:102A00002DFF0320FFF714FF8B4908700420FFF708
:102A10000FFF8A49087005210720FFF71FFFF421E7
:102A20000D20FFF71BFF10BD00B589B00121082064
:102A3000FDF7F8FF4FF48050ADF80C0010208DF832
:102A40000F0003208DF80E0003A97A48FDF734FD2E
:102A50004FF480517748FDF7DAFD4FF48060ADF810
:102A60000C0010208DF80F0003208DF80E0003A934
:102A70007048FDF721FD4FF480616E48FDF7C7FDFA
:102A80004FF40060ADF80C0003208DF80E004820D4
:102A90008DF80F0003A96748FDF70EFD4FF40060A5
:102AA000019000208DF808000C208DF8090001200D
:102AB0008DF80A0001A8FDF71FFC0B210120FDF78E
:102AC0000FFE4FF40060FDF78EFC4FF48051594823
:102AD000FDF79DFD4FF480615648FDF79AFD0A20F1
:102AE00000F09DF901218803FDF7A9FF01210920CC
:102AF000FDF798FF4FF46040ADF80C0003208DF80F
:102B00000E0018208DF80F0003A94A48FDF7D4FCE9
:102B100000214B48FEF7B9F80020ADF810004FF443
:102B20008270ADF812000020ADF81400ADF8160068
:102B3000ADF818004FF40070ADF81A003020ADF871
:102B40001C000020ADF81E000720ADF8200004A9ED
:102B50003B48FDF7F5FF01213948FEF796F809B02B
:102B600000BD10B5002037490870FFF75DFF4FF436
:102B700080613048FDF74BFD642000F050F94FF4C0
:102B800080612C48FDF745FDFFF77DFE01202D49B2
:102B9000087010BD70B505460E46002401210720BF
:102BA000FFF75CFE0A2000F03AF931463E20FFF7BD
:102BB00055FE00BF04E0295D7F20FFF74FFE641C37
:102BC000B442F8D304210520FFF748FE0021062077
:102BD000FFF744FE0320FFF72BFE1749087004207F
:102BE000FFF726FE1549087009210720FFF736FE7A
:102BF00005E0641CB4F5E02F01D9002406E04FF491
:102C000000610C48FDF7E9FC0128F2D000BF002468
:102C10000320FFF70DFE084908700420FFF708FEA7
:102C20000649087003210520FFF718FE0021062041
:102C30000AE00000000C01401600002017000020F0
:102C40000038004019000020FFF708FE0320FFF7BE
:102C5000EFFD254908700420FFF7EAFD23490870BD
:102C600005210720FFF7FAFD02210820FFF7F6FDF6
:102C700000210820FFF7F2FD05210720FFF7EEFDF8
:102C800070BD1CB50D210120FDF72AFD4FF4005049
:102C9000009000208DF804000C208DF80500012024
:102CA0008DF806006846FDF727FB4FF40050FDF74E
:102CB0009AFB1CBD1CB50D210120FDF711FD4FF441
:102CC0000050009000208DF804000C208DF80500C5
:102CD00000208DF806006846FDF70EFB4FF400500B
:102CE000FDF781FB1CBD000016000020170000202E
:102CF000002105E0002200E0521C482AFCDB491CB0
:102D00008142F7DB704710B5044621464948FEF77B
:102D1000B3F90120FFF7ECFF00BF80214548FEF723
:102D200019FA0028F9D010BD70B50446002503E05B
:102D3000605DFFF7E8FF6D1C605D0028F8D170BD95
:102D400010B5044621463C48FEF796F91E20FFF7D1
:102D5000CFFF00BF80213848FEF7FCF90028F9D0EA
:102D600010BD70B50446002503E0605DFFF7E8FF85
:102D70006D1C605D0028F8D170BDFEB504460026CC
:102D80001CB93020FFF7BFFF48E00CE00A2094FB9D
:102D9000F0F100FB1140C0B20DF80600701CC6B285
:102DA0000A2094FBF0F4002CF0D1751E34E01DF8DD
:102DB00005000A282ED2DFE800F005090D111519CB
:102DC0001D2125293020FFF79EFF23E03120FFF74A
:102DD0009AFF1FE03220FFF796FF1BE03320FFF73A
:102DE00092FF17E03420FFF78EFF13E03520FFF746
:102DF0008AFF0FE03620FFF786FF0BE03720FFF752
:102E000082FF07E03820FFF77EFF03E03920FFF75D
:102E10007AFF00BF00BF6D1E002DC8DAFEBD30B5C1
:102E20000446002503E06420FFF762FF6D1CA54205
:102E3000F9DB30BD003801400044004008B50021F6
:102E40004FF00050FDF714FA00214FF00060FDF73D
:102E50000FFA4FF4A060FDF7D3F925208DF800009C
:102E600004208DF8010000208DF8020001208DF86B
:102E700003006846FDF7C9F926208DF800000620FA
:102E80008DF8010000208DF8020001208DF803006C
:102E90006846FDF7BAF928208DF8000005208DF866
:102EA000010000208DF8020001208DF80300684623
:102EB000FDF7ABF911208DF8000001208DF801001D
:102EC0008DF802008DF803006846FDF79EF910208A
:102ED0008DF8000002208DF8010000208DF802001E
:102EE00001208DF803006846FDF78FF908BD00B595
:102EF00085B0012144F20400FDF794FD012148044E
:102F0000FDF79DFD4FF40170ADF8100018208DF80D
:102F1000130003208DF8120004A97748FDF7CCFABE
:102F20004FF48160ADF8100004208DF8130004A95F
:102F30007148FDF7C1FA4FF4964000900020ADF8BB
:102F40000400ADF80600ADF80800ADF80C000C2048
:102F5000ADF80A0069466948FDF795FF012240F285
:102F600025516648FEF727F801216448FEF717F857
:102F700069466348FDF787FF012240F2244160481B
:102F8000FEF719F801215E48FEF709F805B000BD0B
:102F900010B501210846FDF745FD01210420FDF78C
:102FA00041FD01210820FDF73DFD01211020FDF725
:102FB00039FD01218803FDF735FD01214804FDF7A6
:102FC0003EFD01210803FDF72DFD01218803FDF7DA
:102FD00036FD0121C802FDF725FD01210846FDF758
:102FE0002EFD01210846FDF710FD10BD10B5FFF7BD
:102FF000CFFFFFF77CFFFFF721FF00F0A0F910BD26
:1030000000B587B0012144F20800FDF718FD4FF428
:103010006040ADF8040003208DF8060018208DF8FC
:10302000070001A93748FDF747FA0020ADF808006E
:103030004FF48270ADF80A000020ADF80C00ADF836
:103040000E00ADF810004FF40070ADF812003820FB
:10305000ADF814000020ADF816000720ADF81800F8
:1030600002A92948FDF76CFD01212748FDF70DFE57
:1030700007B000BD704708B54FF44070ADF80000D0
:1030800010208DF8030002208DF8020069461D48CB
:10309000FDF712FA4FF440711A48FDF7BAFA08BD6D
:1030A00008B501210820FDF7BDFC4FF48050ADF8B4
:1030B000000010208DF8030003208DF802006946FF
:1030C0001048FDF7F9F94FF480510E48FDF79FFACB
:1030D0004FF48060ADF8000010208DF8030003204D
:1030E0008DF8020069460748FDF7E6F94FF4806164
:1030F0000448FDF78EFA08BD000801400038014081
:1031000000440040000C014000380040704710B5FA
:10311000FDF71EFB4FF48030FDF73AFB00BF312076
:10312000FDF759FB0028FAD00020FDF7B6FB002080
:10313000FDF7C5FB4FF48060FDF7B8FB4FF480400E
:10314000FDF7D7FB0120CA4908604FF4E0110004E5
:10315000FDF786FB0120FDF78FFB00BF3920FDF74F
:103160003AFB0028FAD00220FDF789FB00BFFDF7EB
:103170008FFB0828FBD1012144F20400FDF752FC2B
:1031800010BD10B5FFF732FFFFF7EBFCFFF773FF41
:103190004FF40071B748FDF73AFA4FF48071B54823
:1031A000FDF735FAB4A0FFF7BFFD4FF4FA61072031
:1031B00000F090FD10BDB248007820F00100401CE6
:1031C000AF4908700846007820F00200801C0870A3
:1031D000704710B588B00446AA48FEF757FF012192
:1031E0000820FDF71FFC0120ADF80C0018208DF819
:1031F0000F0003208DF80E0003A99E48FDF75CF92F
:103200000020ADF802008DF80800CE20ADF80400D3
:1032100069469C48FEF7AAFB6020ADF81000ADF8A7
:1032200016400020ADF818000120ADF8120004A9E6
:103230009448FEF767FC01219248FEF7F3FF012155
:103240009048FEF7FBFE01218E48FEF7EBFE08B02A
:1032500010BD08B54FF4A060FCF7D2FF1B208DF81D
:10326000000001208DF801008DF802008DF80300A8
:103270006846FCF7CAFF08BD00B587B00121C80247
:10328000FDF7D0FB8048FEF701FF4FF48070ADF8EA
:10329000180004208DF81B0003208DF81A0006A9E1
:1032A0007A48FDF709F94FF6FF70ADF804004720A2
:1032B000ADF800000020ADF80600ADF80200694648
:1032C0007148FEF753FB002201216F48FEF7C5FE4F
:1032D00001216D48FFF76CF90020ADF80C000220C9
:1032E000ADF80E000020ADF812000120ADF810007E
:1032F0000020ADF8140003A96348FEF715FE502125
:103300006148FEF7C9FE04215F48FFF70DF98021EF
:103310005D48FFF712F9002202215B48FEF79DFE8F
:1033200002215948FFF744F901215748FEF77AFE78
:10333000012202215448FEF790FE07B000BD00B5FF
:103340008BB001210846FDF760FB5148FFF748F9B3
:103350005048009050480190102002904001039086
:1033600000200490802005900020069007902020E7
:1033700008900002099000200A9069464448FFF72F
:10338000D1F9012202214248FFF703FA0122082164
:103390003F48FFF7FEF9012280213E48001FFDF75C
:1033A0002FFE00213A48FFF7E8F939481438FFF7B3
:1033B00017F93848009039480190002002904FF4E6
:1033C000007003900020049080200590002006905B
:1033D000079020200890C001099000200A906946BB
:1033E0002B481438FFF79EF901220221284814388F
:1033F000FFF7CFF90122082125481438FFF7C9F952
:10340000012240212348001FFDF7FAFD0121204839
:103410001438FFF7B2F90BB000BD30B585B068467F
:10342000FDF793FA64220198B0FBF2F1B1F1807FCD
:1034300000D31BE021F07F40401E4FF0E02250619E
:1034400050170F22002806DA1301154C00F00F0563
:103450002D1F635502E01301124C235400BF0020BE
:103460004FF0E02290610720106100BF05B030BD31
:1034700000200240000C0140696E69746F6B0A0005
:103480001A00002000040040002C01400008014008
:10349000800002400444004034010020100200205B
:1034A00018ED00E000E400E001460422002003E003
:1034B00000230B54431CD8B29042F9DB70472DE92E
:1034C000F84F054688460024CDF80080FB4890F868
:1034D0000090FB48FFF7E8FF09F00F0B4FEA191ABD
:1034E000F84800EB0A1010F80B60285D80F05500DA
:1034F000F3490855641C285D80F055000855641C8C
:10350000285D80F055000855641C285D80F055004A
:103510000855641C285D80F055000855641C285D22
:1035200070400855641C285D70400855641C285D77
:1035300070400855601CC4B2285D70400855601C7E
:10354000C4B2285D70400855601CC4B2285D70404C
:103550000855601CC4B2285D70400855601CC4B298
:10356000285D70400855012707E0E819005D7040AC
:103570003919D34A5054781CC7B2285DB842F4DADE
:10358000687880EA0900A9784840E97848402979B4
:103590004840A8F10101CA4A5054CB49009808702C
:1035A000BDE8F88F2DE9F34F83B0044604980290EC
:1035B0002078002862D0C548FFF776FF607880F059
:1035C0005508A07880F05509E07880F0550A2079F8
:1035D00080F0550B207880F05500BC4908700846F3
:1035E00080F8018080F8029080F803A080F804B091
:1035F0000298401E205C80EA080080EA090080EA08
:103600000A0080EA0B0707F00F00009038110190C4
:10361000AC49019801EB001100980D5C607968409D
:10362000AA494871A07968408871E0796840C871FA
:10363000207A68400872607A68404872A07A6840D0
:103640008872E07A6840C872207B68400873084638
:10365000007B05280EDA012608E0A019007B6840EF
:103660009A4A06F10C015054701CC6B29748007B70
:10367000B042F2DA0298401E94490F5405B0BDE8FA
:10368000F08F10B5002406E09049601D085C904959
:103690000855601CC4B2042CF6DB04228C498D480A
:1036A00004F078FB08B9012010BD8948FFF7FCFE43
:1036B0000020F9E770B50646FFF7E3FF012876D151
:1036C000002407E03019417983480068401D015506
:1036D000601CC4B2042CF5DB707A7F49096848701D
:1036E000B07A7D4909688870F07A7B490968C870AA
:1036F000307B7949096808717748006800790528A6
:1037000010DA012409E006F10C00025D601E724926
:10371000096809310A54601CC4B26F480068007916
:10372000A042F0DA6C4800684078282802D0F828D7
:103730007ED1EFE068480068C07832284DD16648F5
:103740000068407A6549087063480068807A644977
:10375000087032256348007890B9634805705F4867
:103760000078614948705E48007888705F4800685A
:1037700003F03EF95B480078401C5A4908709BE012
:1037800058480078012813D15948057053480078EB
:10379000574948705248007888705448006803F0D0
:1037A00027F950480078401C4E49087084E0D3E067
:1037B0004C48007802287FD14E4805704748007871
:1037C0004C4948704648007888704848006803F0C3
:1037D0000FF90020434908706EE03F480068C07848
:1037E000332869D13C480068407A012855D14249C4
:1037F000087039480068407A4049087036480068C7
:10380000807A3649087034480068C07A34490870B4
:10381000332534480078A0B9334805702F48007824
:10382000314948702E48007888703048006800E0C0
:1038300090E003F0DDF82B480078401C294908701F
:103840003AE028480078012812D129480570234819
:10385000007827494870224800788870234800681B
:1038600003F0C6F81F480078401C1E49087023E08A
:103870001C48007802281FD11E48057017480078A0
:103880001C4948701648007888701848006803F092
:10389000AFF80020134908700EE00F480068407A26
:1038A000022809D10020144908704FF4A07014496F
:1038B000088014A0FFF738FA4DE0000059000020FE
:1038C00022010020C47E00085000002010010020CA
:1038D0005A000020AC00002054000020A900002065
:1038E000A80000205800002064000020880000206C
:1038F000670000206A000020AA000020A700002026
:10390000B0000020B9D8B1D5BFAACABCD1A7CFB0EA
:10391000A3A1000011480068C078402819D1C82030
:10392000FFF77DFA0EA0FFF7FFF9002406E00E482E
:10393000015D601D0D4A1154601CC4B2042CF6DBFD
:1039400012210A48FFF7BBFD094801780948FFF733
:1039500021F900E000BF00BF70BD0000540000204E
:103960007465737400000000AC000020200000208B
:10397000500000202201002070B505460E460024AC
:1039800005E0601CC4B2C82C01DD002070BD02211E
:103990002846FDF7FEF90028F3D031462846FDF70A
:1039A000A5F9002405E0601CC4B2C82C01DD00208C
:1039B000ECE701212846FDF7ECF90028F3D0284672
:1039C000FDF796F9C0B2E1E700B587B00121052007
:1039D000FDF728F82020ADF8040003208DF806003C
:1039E00018208DF8070001A96E48FCF765FD4020FE
:1039F000ADF8040003208DF8060018208DF80700AC
:103A000001A96848FCF758FD8020ADF804000320A8
:103A10008DF8060018208DF8070001A96148FCF711
:103A20004BFDE0215F48FCF7F2FD00215E48FDF709
:103A30002CF90020ADF808004FF48270ADF80A00B0
:103A40000020ADF80C000220ADF80E000120ADF80A
:103A500010004002ADF812003820ADF8140000202C
:103A6000ADF816000720ADF8180002A94E48FDF782
:103A700067F801214C48FDF708F907B000BD70B5A3
:103A80000546002405E0601CC4B2C82C01DD0020FE
:103A900070BD02214548FDF77CF90028F3D0294686
:103AA0004248FDF723F9002405E0601CC4B2C82C8D
:103AB00001DD0020ECE701213C48FDF76AF9002810
:103AC000F3D03A48FDF714F9C0B2E1E700B587B08A
:103AD000012144F20400FCF7A5FFE020ADF8180036
:103AE00018208DF81B0003208DF81A0006A92D4818
:103AF000FCF7E2FCE0212B48FCF789FD0020ADF843
:103B000004004FF48270ADF806000020ADF8080004
:103B1000ADF80A000120ADF80C004002ADF80E002F
:103B20003820ADF810000020ADF812000720ADF8E5
:103B3000140001A91D48FDF703F801211B48FDF7FA
:103B4000A4F8FF20FFF79BFF07B000BD10B50446A7
:103B5000154800884FF6C771084013490880084689
:103B600000882043088001210F48FDF78EF810BD22
:103B700010B5044600BF02210C48FDF70AF90028E1
:103B8000F9D021460948FDF7B1F800BF01210748E7
:103B9000FDF7FFF80028F9D00448FDF7A9F8C0B2F6
:103BA00010BD000000080140003001400038004016
:103BB000F8B506460C46154600270420009008E09C
:103BC00021883046FDF787FC0090B81C87B2B61CF0
:103BD000A41CAF4203DA9DF800000428F0D0284668
:103BE000F8BD10B50346002003E013F8014B0C5458
:103BF000401C9042F9DB10BD2DE9F04FADF2044DB1
:103C00000746894690460420CDF800044646002524
:103C1000FDF71FFB4FEA972B4FEA8B2BC7F3090ADF
:103C2000CAF58064A64200D8B4B24DE04FF4806279
:103C300069465846FFF7D5FF002508E00AEB050066
:103C40001DF80000FF2800D003E0681C85B2A542E3
:103C5000F4DB00BFA54221DA5846FDF739FBCDF869
:103C600000049DF80004042805D04FF0FF300DF249
:103C7000044DBDE8F08F002507E019F8050005EBBD
:103C80000A010DF80100681C85B2A542F5DB4FF46E
:103C9000806269465846FFF78BFF04E0224649469A
:103CA0003846FFF785FFA64200D10EE00BF5806B8A
:103CB0004FF0000AA1442744361BB6F5806F02D9A5
:103CC0004FF4806400E0B4B2B0E700BFFDF7CEFA75
:103CD0004046CCE745F25552084B1A601A465060F0
:103CE00091604AF6AA221A604CF6CC421A607047DC
:103CF0004AF6AA20014908607047000000300040E1
:103D0000704700BFFEE700BFFEE700BFFEE700BF51
:103D1000FEE77047704710B503F0ECFE0446CA4852
:103D20000078401CC8490870204603F0E7FE01F007
:103D30002BFE01F031FD10BD10B540F22551C348F6
:103D4000FDF71EFA002818D0C048001D0088C049A1
:103D50000870C048007888B908460078AA280CD1B5
:103D600008460078BC49096808700120B949087004
:103D7000B7480078B84909684873BDE0B54800788D
:103D8000012811D1B2480078B3490968487002206F
:103D9000B0490870B0480068407BAD4909780844D4
:103DA000AD4909684873A7E0AA480078022811D1F4
:103DB000A7480078A849096888700320A5490870B9
:103DC000A5480068407BA24909780844A2490968CF
:103DD000487391E09F480078032811D19C480078EF
:103DE0009D490968C87004209A4908709A4800687B
:103DF000407B9749097808449749096848737BE0F4
:103E000094480078042826D191480078924909689E
:103E10000871914800680079082803DD00208D4969
:103E2000087069E08C480068007918B90620894953
:103E3000087002E00520874908700020864909685B
:103E4000887385480068407B814909780844824925
:103E50000968487350E07F480078052824D17C48E1
:103E600001787D480068827B7B480068807B401C2D
:103E7000794B1B68987378480068401D81547648D8
:103E80000068407B7249097808447349096848739F
:103E900071480068807B70490968097988422BD194
:103EA00006206C49087027E06A480078062823D16C
:103EB00069480068407B66490978884219D167489B
:103EC000007828B101216648006802F091FD04E005
:103ED00000216348006802F08BFD6048007880F0A4
:103EE00001005E4908705F48097800EB01105A49EB
:103EF000086000205749087040F225515348FDF7EB
:103F000069F910BD70B5B8B040F224415648FDF7CC
:103F100037F9002836D000215448FEF72EFC5348CC
:103F2000FEF742FCC0F5007085B2002D19DD05E0FA
:103F3000761CB6F5E02F01D9002603E04C48007846
:103F40000028F5D000BF0026002405E04948005DA8
:103F500001A90855601C84B2AC42F7DB01A800F04F
:103F60002AFA4FF47000FEF736FC4FF400703F4918
:103F70006C39086701213D48FEF7FFFB3A48048889
:103F8000001D04884FF45A713748FDF7F9F820B145
:103F90004FF45A713448FDF71DF940F2266132485A
:103FA000FDF718F940F224412F48FDF713F938B016
:103FB00070BD10B54FF40010FEF72BFC4FF400005D
:103FC000FEF727FC00212948FEF7D7FB4FF41170BC
:103FD00026496C39086701212448FEF7CEFB10BD45
:103FE00010B54FF00070FEF714FC4FF00060FEF7C4
:103FF00010FC00211D481430FEF7BFFB01201C49B6
:10400000087010BD7047704710B502211A48FEF7BE
:10401000C6FA18B102211848FEF7DEFA10BD10B535
:104020004FF40060FCF7CEF960B114480078012825
:1040300004D101211248006802F0DAFC4FF400605C
:10404000FCF7D1F910BD7047D100002000380140C5
:104050007100002082000020740000207800002001
:1040600084000020782A0020004400406C000240B8
:104070008100002010020020002C014019000020C7
:104080009000002010B501F061FB0923044A0021D3
:10409000044803F0BDF801F040FC002010BD000012
:1040A0006C200020894B000810B50B46002208E068
:1040B00013F8014B848000BF048814F0800FFBD0FC
:1040C000521C052AF4D3002208E013F8014B848027
:1040D00000BF048814F0800FFBD0521C0C7994426E
:1040E000F3D84C7B848000BF048814F0800FFBD091
:1040F00010BD3FB505460C46AA208DF8000060783B
:1041000000118DF801009DF8010000F00F008DF8FE
:1041100001009DF80100617840EA0110C0B28DF8FD
:104120000100A07800F03F008DF80200E0788DF8E3
:10413000030000208DF804009DF800008DF80D00AC
:104140009DF80D009DF801100844C0B28DF80D00D7
:104150009DF80D009DF802100844C0B28DF80D00C6
:104160009DF80D009DF803100844C0B28DF80D00B5
:104170009DF80D009DF804100844C0B28DF80D00A4
:1041800069462846FFF790FF3FBD2DE9F041804684
:104190000D462F4600240020F84908700021F848F9
:1041A000FEF7EBFA0120F74908604FF00000F649EE
:1041B00008704FF00101F248FEF7DFFA1E20FEF70B
:1041C0002EFE002606E017F8010BEC490855601C8E
:1041D000C4B2761C032EF6D3002606E017F8010BB6
:1041E000E6490855601CC4B2761CA878B042F5D8E0
:1041F00095F8D300E1490855601CC4B295F8D40085
:104200000855601CC4B20021DD48FEF7B6FADD484F
:1042100004604FF00000DC4908704FF00101D848FD
:10422000FEF7ABFA0024BDE8F08130B5B7B0054623
:104230000C4616208DF804008DF8054000208DF8FE
:1042400006009DF804008DF8D7009DF8D7009DF872
:1042500005100844C0B28DF8D7009DF8D7009DF82E
:1042600006100844C0B28DF8D7009DF8D700C117DA
:1042700000EB11610912A0EB0121C9B28DF8D71032
:1042800008208DF8D80001A92846FFF77EFF37B037
:1042900030BD70B50546002417E00020B74908700E
:1042A0000021B748FEF769FA0120B64908604FF0CF
:1042B0000000B54908704FF00101B148FEF75DFA02
:1042C0000F20FEF715FD601C84B2B4F5C87FE4DB57
:1042D00070BD70B50546002417E00020A74908709E
:1042E0000021A748FEF749FA0120A64908604FF0CF
:1042F0000000A54908704FF00101A148FEF73DFA02
:104300001920FEF7F5FC601C84B2B4F5C87FE4DB2D
:1043100070BDF0B5B7B007460D46164616208DF8AD
:1043200004008DF80550D0208DF80600002405E02B
:10433000315D0DF107000155601CC4B29DF8060007
:10434000A042F5DC9DF804008DF8D7009DF8D70059
:104350009DF805100844C0B28DF8D7009DF8D7002D
:104360009DF806100844C0B28DF8D70000240AE07A
:104370009DF8D7100DF10700005D0844C0B28DF81C
:10438000D700601CC4B29DF80600A042F0DC9DF886
:10439000D700C11700EB11610912A0EB0121C9B2CE
:1043A0008DF8D71008208DF8D80001A93846FFF7FE
:1043B000ECFE37B0F0BD2DE9F041054600260024A3
:1043C00000277EB9285D16280BD1285D6F49096842
:1043D00008700126285D6D49096881F8D300641CC6
:1043E00000E00026012E0FD1285D68490968487059
:1043F00002266648006890F8D300295D08446349A6
:10440000096881F8D300641C022E21D1285D5F4920
:10441000096888705D480068807808B9042607E05C
:104420005A4800688078D02801D1032600E0002691
:1044300000205649096881F8D5005448006890F872
:10444000D300295D08445149096881F8D300641CF0
:10445000032E32D100271FE0295D4C48006890F8F8
:10446000D5204A48006890F8D500401C474B1B688F
:1044700083F8D50045480068C01C81544348006853
:1044800090F8D300295D08444049096881F8D300B9
:10449000601CC4B2781CC7B2D02FDDDB3B4800687B
:1044A00090F8D500394909688978884205D10426F1
:1044B00000203649096881F8D500042E11D133490E
:1044C000096891F8D300C11700EB11610912A0EB44
:1044D00001212A5D914203D10526601CC4B200E08F
:1044E0000026052E49D1285D2849096881F8D400A5
:1044F000601CC4B226480078012875D1B001254956
:104500000880224800684078862804D01F48006848
:1045100040788C284FD120480078012814DB1E48B1
:1045200000780A2810DC1D480078012841DB1B4870
:1045300000780A283DDC012019490870012119483A
:10454000006802F055FA34E0134800780B282BDBA2
:1045500011480078142827DC10480078012828DB4F
:104560000E4800781E2824DC02200D490870012125
:104570000C48006802F03CFA1BE039E034010020EE
:104580008000024084000240810000207C00002066
:10459000AA000020B0000020A9000020A8000020F0
:1045A000AB0000208C00002002211248006802F0BD
:1045B0001FFA002618E0104800684078C62804D08A
:1045C0000D4800684078CC2806D1022109480068CF
:1045D00002F00EFA002607E0074800684178054817
:1045E000006802F005FA002600262846FEF75CFF68
:1045F000BDE8F0818C0000207C00002008B500BFE1
:104600006A4600211D48006802F015F9054615B1FB
:10461000012D31D100E000BF2846194901EB0014FB
:10462000607800F00F0008281CD1E078422819D1EA
:104630000422611D1348FFF7DFFA13A0FEF774FB95
:10464000042214490F48FFF7CCFA002608E012A014
:10465000FEF76AFB0F49885DFEF78FFB701CC6B240
:10466000042EF4DBA07800F0C000C02803D121465E
:104670000A48FFF73EFD00E000BFC1E784000020CC
:10468000782A0020008400080A0D494420736574CC
:104690006F6B3A00AC0000203B0000000038014086
:1046A00008B500BF00BF6A4600217948006802F0E3
:1046B000C2F80446774821880180A178817000788B
:1046C000754908707348407874490870714880785B
:1046D00073490870C820734908804FF4807172488C
:1046E000FBF795FF6D480078704908706C480078BA
:1046F0006F4908706848007832287CD16B48007890
:1047000001283BDB694800780A2837DC4FF4007148
:104710006548FBF77EFFFFF7EBFA64490978491E0D
:1047200001EB8111634A02EB411261490978491E8C
:1047300001EB810303EBC10102EB0110D0225E49C2
:10474000FFF74FFAFFF7D4FA5B4A0D215B48FFF7FA
:10475000E0FD4FF400715448FBF759FFFFF7C8FA2A
:104760009620FEF75CFBFFF7C3FA9620FEF757FB97
:10477000FFF7BEFA5148FFF78CFD4BE04B4800783D
:104780000B2847DB49480078142843DC4FF40071BC
:104790004548FBF73EFFFFF7ABFA444909780B3970
:1047A00001EB811101EB4101454A02EB4112404905
:1047B0000978491E01EB810303EBC10102EB0110F3
:1047C000D0223D49FFF70DFAFFF792FA3DA0FEF720
:1047D000ABFA4048006802F0BBFB3FA0FEF7A4FA2A
:1047E000354A07213548FFF794FD4FF400712E48F4
:1047F000FBF70DFF00E017E0FFF77AFA1E20FEF747
:104800000EFBFFF775FA08212C48FFF70EFD2B4829
:10481000FFF73FFD00202149087021490870234916
:104820000870234908702FE01B48007833282BD1EB
:104830001E48007801280FDB1C4800780A280BDC92
:104840000C211E48FFF7F1FCFFF752FA032126481E
:10485000006802F0CDF812E0144800780B280EDB57
:104860001248007814280ADC06211448FFF7DDFC02
:10487000FFF73EFA03211C48006802F0B9F8002057
:1048800006490870064908700B48FEF70DFE0AE756
:1048900088000020A0000020A4000020A500002027
:1048A000A6000020B2000020000C0140A90000205A
:1048B000A800002008840008622C0020004400406A
:1048C00048D5000853746172742053656D506F733E
:1048D000740D0A0094000020656E642053656D50CD
:1048E0006F73740A0D0000008C00002008B50024CE
:1048F00000BF00BF6A4600218D48006801F09BFFA1
:104900000546ECB2002CF5D0FFF7F2F9012C7CD172
:1049100088480078012823D1FFF7EAF98648FFF795
:10492000D8FCFFF7E5F985490978491E01EB8111AB
:10493000834A02EB411283490978491E01EB810346
:1049400003EBC10102EB0110D0227F490968C91CA9
:10495000FFF752F900207D4908707649087028E079
:1049600074480078022824D1FFF7C2F97248FFF793
:10497000B0FCFFF7BDF9714909780B3901EB8111E2
:1049800001EB4101724A02EB41126E490978491E5E
:1049900001EB810303EBC10102EB0110D0226A4954
:1049A0000968C91CFFF728F90020684908706149A7
:1049B000087068480078684948716648407888718E
:1049C00064488078C8716348C07808728220487251
:1049D0003420C8720320087308464473574800788F
:1049E000887358480078C87312215B48FEF767FD4A
:1049F000FFF77EF9594801785948FEF7CBF8FFF7E1
:104A000077F9082002F07AFF00E009E0FFF770F97B
:104A1000524801785248FEF7BDF8FFF769F97CE08B
:104A2000022C3AD10020494908704EA0FEF77CF9CB
:104A30004848007848494871464840788871454858
:104A40008078C8714348C078087282204872342048
:104A5000C872032008730846447338480078887386
:104A600038480078C87312213B48FEF728FDFFF74D
:104A70003FF93A4801783A48FEF78CF8FFF738F9E1
:104A8000052002F03BFFFFF733F934480178344842
:104A9000FEF780F8FFF72CF93FE0032C03D134A098
:104AA000FEF742F939E000202849087033A0FEF7EC
:104AB0003BF9284800782849487126484078887191
:104AC00024488078C8712348C078087282204872D0
:104AD0003420C872032008730846447317480078CE
:104AE000887318480078C87312211B48FEF7E7FC4A
:104AF000FFF7FEF8194801781948FEF74BF8FFF761
:104B0000F7F8052002F0FAFEFFF7F2F813480178F3
:104B10001348FEF73FF8FFF7EBF8032C06D0002010
:104B20000649087007490870084908700024E1E642
:104B30008C000020AB00002000440040A9000020B1
:104B400008840008A80000207C000020AA000020A3
:104B500048D50008AC0000203200002050000020A2
:104B60002201002020D1A7CFB0CAA7B0DCA3A100AA
:104B700020D5FDD4DAD1A7CFB0A3A10020C6E4CBC5
:104B8000FBB4EDCEF33D2000B4B0D0226C496846B2
:104B900003F02CF9002600BF1E20FEF740F902F0BA
:104BA000A9FF0646FEF7EDFA042266496648FFF7BC
:104BB00018F8002002F06DF8644908600723644A81
:104BC0000021644802F024FB0623634A0021634865
:104BD00002F01EFB0523624A0021624802F018FB26
:104BE0000823614A0021614802F012FB0A23604A4F
:104BF0000021604802F00CFB14215F4801F02FFDFA
:104C00005E49086014215E4801F029FD5D49086095
:104C10000A215D4801F023FD5C4908601E215C48C3
:104C200001F01DFD5B490860304602F067FFFEF7AA
:104C3000F4FBD02269465848FEF7DEFF00BF574814
:104C4000007801282ED101025548FBF7E0FC4FF413
:104C500000715348FBF7DDFCFFF74AF8042002F02F
:104C60004DFEFFF745F84FF400714D48FBF7CFFCC0
:104C7000FFF73EF8042002F041FEFFF739F84948FB
:104C80000088401E474908800846008850B94FF404
:104C9000A070088002213D48006801F0A9FE0020B4
:104CA0003E4908703D48007848B94FF400713C48CF
:104CB000FBF7ADFC4FF480713948FBF7AAFC1734C1
:104CC0004FF6E850844200D90024204603F044F80F
:104CD000FBF75CFAC5B285F02900334908702F480C
:104CE0000078F8B931480088401E304908800846ED
:104CF0000088282809DB08460088C82805DC4FF40E
:104D000080712748FBF783FC14E028480088282896
:104D100009DA26480088012805DB4FF48071204815
:104D2000FBF777FC06E021480088002802DCC82059
:104D30001E490880FEF7DCFF012002F0DFFD7EE760
:104D4000C47F0008AC00002000840008940000200C
:104D5000A4070020FD450008F40F0020A14600082C
:104D600044180020ED4800086C280020B14D0008D0
:104D7000742A0020E54E0008A807002084000020C7
:104D8000F80F002088000020481800208C00002028
:104D9000702800209000002078E10008AA00002080
:104DA000000C0140B000002059000020B20000209B
:104DB00008B500BF6A4600213448006801F03BFD99
:104DC0000546012DF6D1FEF793FF01210720FDF7DF
:104DD00045FD0320FDF72CFD2D4908700420FDF74B
:104DE00027FD2C4908702A48007810F0010F07D0E1
:104DF00002210820FDF732FD00210820FDF72EFDDD
:104E00002348007800F0020002281CD14B20FDF757
:104E10000FFD04460020204908700BE07F20FDF7BD
:104E200007FD1E491C4A127888541B480078401C14
:104E30001949087018480078A042EFDBFEF758FFC8
:104E400001201749087002210820FDF707FD002105
:104E50000820FDF703FD05210720FDF7FFFC1048A2
:104E600000780128A6D100200D49087021460B4882
:104E7000FEF798FB0B48FEF71DFCFEF739FF0948CB
:104E8000FEF712FB0548FEF70FFB93E790000020AA
:104E9000160000201700002015000020FC00002054
:104EA000B50000201001002010B5002404E000200F
:104EB00020490855601CC4B20A2CF8DB00201D49AB
:104EC000087000211C48FDF758FC01201B490860B0
:104ED0004FF000001A4908704FF001011648FDF725
:104EE0004CFC10BD08B500BF22E00020009015A0CA
:104EF000FDF71AFF6A4600211648006801F066FFB8
:104F000015A0FDF711FF9DF8000088B917A0FDF767
:104F10000BFF002302221946184602F01FFD18A0BD
:104F2000FDF702FF08212048FFF77FF9FFF7BCFFDC
:104F3000DBE70000340100208000024084000240D2
:104F40008100002073746172742053656D50656E2A
:104F5000640D0A0094000020656E64206F66205383
:104F6000656D50656E640D0A00000000776169741C
:104F700074696E6720666F7220312E35530D0A00FA
:104F800064656C617920656E6465642C2073656E60
:104F900064696E6720726561642076657273696FFB
:104FA0006E20636D640D0A0000440040024600203C
:104FB00005E011F8013B02F8013B431CD8B20B7825
:104FC000002BF6D1137070472DE9F04105460E46CF
:104FD0001446002714B90020BDE8F0811DB9042053
:104FE00020700020F8E71EB90C2020700020F3E7A5
:104FF000FE480078002803DD112020700020EBE738
:105000002878012808D0022807D0032802D00428D5
:1050100004D100E000BF00BF00BF03E0012020700A
:105020000020D9E700BF02F065FD074605F10E013B
:105030003046FFF7BBFF8046384602F05FFD002098
:1050400020704046C8E70146002002E0491C421C8F
:10505000D0B20A78002AF9D170472DE9F04105460F
:105060000E4614464FF000080CB9BDE8F08115B9A2
:1050700004202070F9E716B90C202070F5E7DB4812
:105080000078002802DD12202070EEE72878012841
:1050900008D0022807D0032802D0042804D100E059
:1050A00000BF00BF00BF02E001202070DDE700BFAD
:1050B00002F020FD80463046FFF7C5FF07460F2F60
:1050C00005DD404602F01AFD0B202070CDE7314689
:1050D00005F10E00FFF76AFF404602F00FFD0020C9
:1050E000207000BFC1E7F0B5024612F8344F957842
:1050F0005678A2F134020B4618680FE000F10B0756
:105100003F5DB74300F10B0C0CF8047067463F5D40
:1051100017B9877AAF4387721B1D18680028EDD135
:10512000F0BDB349B34A1278885CB349095CB04A10
:10513000515C01EBC001B14A1170704710B50024F9
:1051400002F0D8FC0446A9480078F0B9AC480078D1
:10515000D8B9FFF7E6FFA9480078AA49097888423C
:1051600013D0A948A549097850F82100A74908603B
:1051700008460068806B401C09688863A448006882
:10518000401CA349086002F0CCFC204602F0B6FCAB
:1051900010BD70B5014600249E4D2D68EC619D4CFC
:1051A000246821620B4618681BE09A4C246894F826
:1051B000345000F10B04645D964D2D6895F8355020
:1051C0002C43944D2D6895F8346000F10B05AC55D7
:1051D000847A904D2D6895F836502C4384721B1DAF
:1051E00018680028E1D18B4C246894F83420824C54
:1051F000A45C884D2D6895F83550AC437E4DAC5479
:105200002C46A45C44B9834C246894F83650794CFD
:105210002478AC43774D2C7070BD2DE9FF4F83B0DF
:1052200081460E461546109F0020009017B907B022
:10523000BDE8F08FB9F1000F03D1042038700020D1
:10524000F5E71EB9042038700020F0E71DB90420EE
:1052500038700020EBE700203060CA46D146DAF80B
:10526000004015E02078062807D2DFE800F00604A9
:105270000503070807E006E005E000BF00BF0120C6
:1052800038700020D3E700BF0AF1040ADAF80040C2
:10529000002CE7D155480078002803DD0220387043
:1052A0000020C4E756480078002803DD0D20387040
:1052B0000020BCE702F01EFC009000200290834614
:1052C0000190CA46DAF8004068E02078062855D2F6
:1052D000DFE800F054182B035556208900280CDD18
:1052E0002089401E208110C601200290002001C5A7
:1052F0000BF101001FFA80FB03E0019840F0010070
:10530000019046E0606858B1606801C500206060A7
:1053100010C6012002900BF101001FFA80FB03E090
:10532000019840F00200019033E0D4F80480B8F80E
:10533000160000281DDDD8F81010081DC8F8100050
:10534000086801C5D8F80810D8F81000884203D1C1
:10535000D8F80400C8F81000B8F81600401EA8F8E5
:10536000160010C6012002900BF101001FFA80FB0D
:1053700003E0019840F0040001900AE000BF00BF84
:10538000009802F0BBFB00203060012038705846C6
:105390004DE700BF0AF1040ADAF80040002C94D16E
:1053A0000298012808D100203060009802F0A6FB86
:1053B0000020387058463AE71648006890F83000E8
:1053C000019941F0800108431249096881F83000D1
:1053D00000201049096881F831000E4906980968D3
:1053E000C8854846FFF7D5FE009815E0D10000209B
:1053F00094800008D5000020D6000020D4000020B2
:10540000D2000020D300002004350020E800002056
:10541000B8000020E000002002F070FBFFF78EFED5
:1054200002F068FB0090F848006890F8310020B165
:1054300001281BD0022818D100E000BFF248006804
:10544000C4693CB110C6002030600BF101001FFAA6
:1054500080FB09E00120EC49096881F831004946E8
:10546000E9480068FFF73FFE06E000BF4946E6480E
:105470000068FFF738FE00BF00BFE348006890F8FF
:10548000310020B1012828D0022825D11FE0207842
:1054900006280DD2DFE800F00C0607030D0E0020F1
:1054A00001C510E000BFD8480068406A01C50AE0A5
:1054B00000BF00BF009802F021FB002030600120F7
:1054C00038705846B3E600BF002038700AE000206C
:1054D00001C50E20387005E000BF002001C50A207C
:1054E000387000BF00BF0020C749096881F830004C
:1054F000C549096881F83100C3490968C861C249D2
:1055000009680862C04909684862009802F0F6FA22
:1055100058468CE67CB5002514E06946284602F022
:105520000BF9064666B9B94850F8254044B1012C3C
:1055300006D0D4E9020100EB810060640198A06408
:10554000681CC5B2142DE8DD7CBD002402E01420E7
:1055500002F0D4F9AE4800780028F8D0AD480068D1
:105560006421B0FBF1F0AB4908600846006828B937
:105570000020A9490870FF2002F029F900BF02F0BD
:10558000B9FA0446A5480068A54908600020A34967
:105590000860204602F0B2FAA14800689D490968F7
:1055A000B0FBF1F0C0F164009B49087002F0F9FA19
:1055B000FFF7B0FF0A2002F0A1F9E0E700B587B0DD
:1055C000032000218022974BCDE90132CDE9031061
:1055D0004FF6FE701323944A0090AFF2910001F051
:1055E00073FE06AA91A1132002F002F807B000BDD5
:1055F000002400BF02F07EFA044688480068401C80
:1056000086490860204602F079FA02F0C9FAF1E70B
:1056100000B587B0032000218022884BCDE90132FC
:10562000CDE903104FF6FF701423854A0090AFF2C6
:105630003F0001F049FE06AA82A1142001F0D8FF24
:1056400007B000BD04E0002200F8012B4A1E91B211
:105650000029F8DC704730B54FF420717D48FFF722
:10566000F1FF7C4B03F1200500240AE000201870B4
:105670005D603F2098730021D97320332035601C72
:1056800084B2132CF2DB0020187058603F2098730E
:105690000021D9736F487049086030BD30B540F2C1
:1056A0008C716E48FFF7CEFF54215848FFF7CAFFB0
:1056B0006A4B03F15C0500240AE05D613F2083F83A
:1056C0004C0000214D20C1545C335C35601CC4B2D9
:1056D000142CF2D3002058613F2083F84C000021A5
:1056E0004D20C15400205E4908605C485D49086057
:1056F00030BD00225C4B1A705C49002004E000229F
:1057000001F8012B421CD0B20328F8DB0022584BD1
:105710001A70584B1A70584B1A603B4B1A607047FE
:105720000020564908605649087056490870564985
:105730000870564908705649086038490860384969
:1057400008603449086032490870704710B502F0AB
:1057500023FAFFF7E5FFFFF7CCFFFFF79FFFFFF707
:105760007AFF00F01EFF01F05EFAFFF751FFFFF72E
:1057700025FF02F012FA02F065FA10BD43480078E6
:10578000012808D13E480078FF2804D23C48007820
:10579000401C3B490870704710B500243B48007816
:1057A000012830D102F0A6F90446354800780028D7
:1057B00004DD33480078401E3149087030480078D5
:1057C000F0B930480078D8B9FFF7ABFC2948007829
:1057D00027490978884213D00C482649097850F89F
:1057E00021002549086008460068806B401C096854
:1057F000886327480068401C2549086002F096F934
:10580000204602F07BF910BDE000002004350020A6
:10581000D0000020C8000020C4000020DC000020D0
:10582000CC000020043100200033002075432F4FAE
:10583000532D494920537461740000000433002043
:105840000035002075432F4F532D49492049646C82
:1058500065000000342D0020BC00002058350020D9
:10586000EC000020E4000020D5000020D60000203D
:10587000D3000020D4000020E8000020F800002021
:10588000D1000020D2000020DA000020D900002042
:10589000B800002010B50024FE480078012811D17E
:1058A00002F028F90446FC48007840B9FB4800782B
:1058B000FF2804D2F9480078401CF84908702046B7
:1058C00002F01CF910BD10B50024F2480078012840
:1058D00022D102F00FF90446F0480078002818DDC4
:1058E000EE480078401EED4908700846007860B91F
:1058F000E948007828B9204602F000F9FFF71EFCBD
:105900000AE0204602F0FAF806E0204602F0F6F837
:1059100002E0204602F0F2F810BD10B5DD48007834
:1059200090B9FFF7FEFBDE480078DE490870DE48DC
:10593000DB49097850F82100DC4908600846006816
:10594000DB49086002F0DDF810BD10B5002402202C
:1059500001F0D4FF02F0CEF804460020D5490860DB
:10596000204602F0CBF80A2001F0C8FF02F0C2F88E
:105970000446D0480068D04908600120CF4908702B
:10598000204602F0BBF810BD70B5002602F059F9B0
:1059900002F0B0F80646CA480068401CC8490860D2
:1059A000304602F0ABF8BB480078012858D1C54812
:1059B000007820B1012804D0022809D103E0012594
:1059C0000BE0002509E001250120BE49087004E034
:1059D00001250020BB49087000BF00BF05B970BD9C
:1059E000B948046838E002F085F80646E08D78B3DF
:1059F000E08D401E0004000CE08529D194F83000B1
:105A000010F0370F09D014F8300F20F03700207055
:105A100001206070A4F1300402E0002084F831001D
:105A200094F8300010F0080F12D104F13404A0787B
:105A3000A649097840EA0100A44908702078A449E1
:105A4000085C617840EA010014F83419A04A505407
:105A50006469304602F052F894F832001428C2D13A
:105A600000BFBCE74FF48F707047704710B590F8D7
:105A7000342001F10B039B5C90F83540A34301F106
:105A80000B04A35423469B5C23B98B7A90F83640D1
:105A9000A3438B7210BD2DE9F04F05460F4690468B
:105AA0009946A87A8B490E5C05F10B00805D11F8D0
:105AB00000B00BEBC60000F0FF0A7B4850F82A400C
:105AC000002004F1240460812760207B20EA080084
:105AD000207384F80D90207BA4F1240410F0080FAB
